{
  "contractName": "TokenERC20",
  "abi": [
    {
      "anonymous": false,
      "inputs": [
        {
          "indexed": true,
          "internalType": "string",
          "name": "from",
          "type": "string"
        },
        {
          "indexed": true,
          "internalType": "string",
          "name": "to",
          "type": "string"
        },
        {
          "indexed": false,
          "internalType": "uint256",
          "name": "value",
          "type": "uint256"
        }
      ],
      "name": "Transfer",
      "type": "event"
    },
    {
      "inputs": [],
      "name": "owner",
      "outputs": [
        {
          "internalType": "string",
          "name": "",
          "type": "string"
        }
      ],
      "stateMutability": "view",
      "type": "function"
    },
    {
      "inputs": [
        {
          "internalType": "string",
          "name": "perpor",
          "type": "string"
        }
      ],
      "name": "balance",
      "outputs": [
        {
          "internalType": "uint256",
          "name": "",
          "type": "uint256"
        }
      ],
      "stateMutability": "view",
      "type": "function"
    }
  ],
  "bytecode": "0x60806040526040518060400160405280600f81526020017f426169647544656274566f6c756d6500000000000000000000000000000000008152506000908051906020019061004f9291906100d6565b506040518060400160405280600381526020017f42445600000000000000000000000000000000000000000000000000000000008152506001908051906020019061009b9291906100d6565b506000600260006101000a81548160ff021916908360ff160217905550670de0b6b3a76400006003553480156100d057600080fd5b5061017b565b828054600181600116156101000203166002900490600052602060002090601f016020900481019282601f1061011757805160ff1916838001178555610145565b82800160010185558215610145579182015b82811115610144578251825591602001919060010190610129565b5b5090506101529190610156565b5090565b61017891905b8082111561017457600081600090555060010161015c565b5090565b90565b6102f18061018a6000396000f3fe608060405234801561001057600080fd5b5060043610610053576000357c0100000000000000000000000000000000000000000000000000000000900480633d80b532146100585780638da5cb5b14610127575b600080fd5b6101116004803603602081101561006e57600080fd5b810190808035906020019064010000000081111561008b57600080fd5b82018360208201111561009d57600080fd5b803590602001918460018302840111640100000000831117156100bf57600080fd5b91908080601f016020809104026020016040519081016040528093929190818152602001838380828437600081840152601f19601f8201169050808301925050505050505091929192905050506101aa565b6040518082815260200191505060405180910390f35b61012f61021d565b6040518080602001828103825283818151815260200191508051906020019080838360005b8381101561016f578082015181840152602081019050610154565b50505050905090810190601f16801561019c5780820380516001836020036101000a031916815260200191505b509250505060405180910390f35b60006004826040518082805190602001908083835b602083106101e257805182526020820191506020810190506020830392506101bf565b6001836020036101000a0380198251168184511680821785525050505050509050019150509081526020016040518091039020549050919050565b60058054600181600116156101000203166002900480601f0160208091040260200160405190810160405280929190818152602001828054600181600116156101000203166002900480156102b35780601f10610288576101008083540402835291602001916102b3565b820191906000526020600020905b81548152906001019060200180831161029657829003601f168201915b50505050508156fea2646970667358221220854a24ebea66c7b67dc4c293a33b20979c20d2fda33dd5e1c6f2d84ea41e490664736f6c634300060a0033",
  "immutableReferences": {},
  "source": "// SPDX-License-Identifier: SimPL-2.0\npragma solidity ^0.6.10;\n\n// 简单的改过的token接口，模仿erc20\ninterface tokenRecipient { \n    function receiveApproval(string memory _from, uint256 _value, string memory _token, bytes memory _extraData) external; \n}\n// 模仿erc20的一个合约，我称之为债卷\ncontract TokenERC20 {\n    // 债卷名称\n    string  name = \"BaiduDebtVolume\";\n    // 债卷简称\n    string  symbol  = \"BDV\";\n    // 债卷小数点后几位\n    uint8  decimals = 0;\n    // 债卷总发布量\n    uint256  totalSupply = 1*10**18;\n    mapping (string => uint256)  balanceOf;  \n    event Transfer(string indexed from, string indexed to, uint256 value);\n    string public owner;\n\n    //  输入需要查询的字符串，可查出该字符串下有多少债卷\n    function balance(string memory perpor) public view returns(uint){\n       return balanceOf[perpor];\n    }\n    \n    // 用来进行债卷的转账的函数，私有不可以外部调用\n    function transfer(string memory _from, string memory _to, uint _value) internal {\n        require(balanceOf[_from] >= _value);\n        require(balanceOf[_to] + _value > balanceOf[_to]);\n        uint previousBalances = balanceOf[_from] + balanceOf[_to];\n        balanceOf[_from] -= _value;\n        balanceOf[_to] += _value;\n        emit Transfer(_from, _to, _value);\n        assert(balanceOf[_from] + balanceOf[_to] == previousBalances);\n    }\n    \n}\n\ncontract  AccountsReceivable is TokenERC20 {\n\n    // 上传账款结构体\n    struct uploadAccount{\n        string thisAccountName;         //该账款名称\n        uint thisAccountMoney;          //该笔账款金额\n        uint uploadTime ;               //上传时间\n        address supplierAddress;        //供货商地址\n        string accountsUrl;             //账款图片链接或视频链接\n        bytes32 uniqueMark;             //唯一标示\n        address enterpriseAddress;      //企业账号地址\n        address bankAddress;            //银行账号地址\n        bool accountIsNotPaid;          //是否已获得账款\n        address ownerThisAccount;       //拥有这笔账款凭证的人\n        bool isNotRepayment;            //是否已还款\n        uint repaymentTime;             //还款日期\n    }\n    \n    constructor(string memory _owner) public {\n        owner = _owner;\n        balanceOf[owner] = totalSupply;\n    }\n\n    //对uploadAccount进行映射，按accountsNumber的值可以找到该id下的账款的详细信息，在下面通过其他方法进行查看。\n    mapping(uint=>uploadAccount) accountsId;\n    // 账款总数\n    uint public accountsNumber;\n    \n    // 该函数由供货商点击输入，输入要输入的该笔账款的名称，需要的金额，以及该账款的图片，视频等其他可以证明的链接\n    // 该函数中默认值有该笔账款的供货商的地址，上传时间，唯一标记。\n    function uploadAccounts(string memory _thisAccountName,uint _thisAccountMoney,string memory _accountsUrl) public {\n        accountsNumber +=1 ;\n        uploadAccount storage thisUploadAccount = accountsId[accountsNumber];\n        thisUploadAccount.thisAccountName = _thisAccountName;\n        thisUploadAccount.supplierAddress = msg.sender;\n        thisUploadAccount.thisAccountMoney = _thisAccountMoney;\n        thisUploadAccount.uploadTime = now;\n        thisUploadAccount.accountsUrl = _accountsUrl;\n        thisUploadAccount.ownerThisAccount = msg.sender;\n        thisUploadAccount.uniqueMark= keccak256(abi.encodePacked\n        (thisUploadAccount.thisAccountName,block.timestamp,thisUploadAccount.accountsUrl));\n    }\n\n    // 该函数由企业部门负责确认，先通过accountsId查询具体情况，然后输入该笔账款的ID进行点击，签上企业地址，来向别的环节证明。   \n    function enterpriseConfirmation(uint AuditId)public{\n        uploadAccount storage thisUploadAccount = accountsId[AuditId];\n        thisUploadAccount.enterpriseAddress = msg.sender;\n    }\n\n    // 该函数由银行部门负责确认，先通过accountsId查询具体情况，然后输入该笔账款的ID进行点击，签上银行地址，来向别的环节证明。\n    function bankConfirmation(uint AuditId)public{\n        uploadAccount storage thisUploadAccount = accountsId[AuditId];\n        thisUploadAccount.bankAddress = msg.sender;\n    }\n\n    // 该函数由金融机构负责确认，先通过accountsId查询具体情况，\n    // 然后输入该笔账款的ID进行点击，签上金融机构地址，\n    // 然后使用token里面的转账方法进行债卷的转移，并且将该笔账单拥有人转为金融机构。\n    function confirmationOfFinancialInstitutions(uint AuditId)public{\n        uploadAccount storage thisUploadAccount = accountsId[AuditId];\n        thisUploadAccount.accountIsNotPaid = true;\n        thisUploadAccount.ownerThisAccount = msg.sender;\n        transfer(owner, thisUploadAccount.thisAccountName, thisUploadAccount.thisAccountMoney);\n    }\n    \n    // 判断是否调用者为银行或公司\n    modifier repaymentAuthority  () {\n        uploadAccount storage thisUploadAccount = accountsId[accountsNumber];\n        require(msg.sender == thisUploadAccount.bankAddress\n        ||msg.sender == thisUploadAccount.enterpriseAddress );\n        _;\n    }\n\n    //该函数是还款功能，只能由欠款企业进行调用进行还款，然后将债卷进行转移给owner，完成业务闭环\n    function repayment(uint AuditId)repaymentAuthority public{\n        uploadAccount storage thisUploadAccount = accountsId[AuditId];\n        thisUploadAccount.ownerThisAccount = msg.sender;\n        thisUploadAccount.isNotRepayment = true;\n        thisUploadAccount.repaymentTime = now;\n        transfer(thisUploadAccount.thisAccountName,owner,thisUploadAccount.thisAccountMoney);\n\n    }\n\n    // 该笔账款详情的查看\n    function SeeAccountDetails(uint AuditId)public view returns(string memory,\n    uint,uint,address,string memory,bytes32,address,address,bool,address,bool,uint){\n        uploadAccount storage thisUploadAccount = accountsId[AuditId];\n        return(thisUploadAccount.thisAccountName,thisUploadAccount.thisAccountMoney,\n        thisUploadAccount.uploadTime,thisUploadAccount.supplierAddress,\n        thisUploadAccount.accountsUrl,thisUploadAccount.uniqueMark,\n        thisUploadAccount.enterpriseAddress,thisUploadAccount.bankAddress,\n        thisUploadAccount.accountIsNotPaid,thisUploadAccount.ownerThisAccount,\n        thisUploadAccount.isNotRepayment,thisUploadAccount.repaymentTime);\n    }  \n    \n}",
  "sourcePath": "/Users/liuminghui/Desktop/AccountsReceivable/contracts/AccountsReceivable.sol",
  "compiler": {
    "name": "solc",
    "version": "0.6.10+commit.00c0fcaf.Linux.g++"
  },
  "schemaVersion": "3.3.3",
  "updatedAt": "2021-08-02T06:41:46.118Z",
  "devdoc": {
    "methods": {}
  },
  "userdoc": {
    "methods": {}
  }
}